:100000000C945D000C9485000C9485000C94850084
:100010000C9485000C9485000C9485000C9485004C
:100020000C9485000C9485000C9485000C9485003C
:100030000C9485000C9485000C9485000C9485002C
:100040000C9410050C9485000C9485000C9485008C
:100050000C9485000C9485000C9485000C9485000C
:100060000C9485000C94850000000008000201003B
:100070000003040700000000000000000102040863
:100080001020408001020408102001020408102002
:10009000040404040404040402020202020203032E
:1000A0000303030300000000250028002B000000CC
:1000B0000000240027002A00160211241FBECFEFE3
:1000C000D8E0DEBFCDBF11E0A0E0B1E0E4EEFDE09E
:1000D00002C005900D92A030B107D9F721E0A0E051
:1000E000B1E001C01D92A23AB207E1F710E0CDE500
:1000F000D0E004C02197FE010E94EA06CC35D1076A
:10010000C9F70E9401050C94F0060C9400008F9230
:100110009F92AF92BF92CF92DF92EF92FF920F9396
:100120001F93CF93DF93EC01CA84DB848FEFC81A4F
:10013000D80ADB86CA86088119810C151D050CF0CA
:1001400059C06A817B816C157D0514F1601B710BB0
:10015000072E000C880B990B0E9407049B01AC0131
:100160006C857D858E859F850E9464034B015C01B3
:10017000B601601B710B072E000C880B990B0E94B7
:1001800007049B01AC01C501B4010E9493042FC078
:100190000C811D810C151D052CF06C857D858E85CF
:1001A0009F8525C0EE80FF80EC14FD041CF1B60194
:1001B0006E197F09072E000C880B990B0E9407040B
:1001C0002C853D854E855F850E9493044B015C0123
:1001D000B8016E197F09072E000C880B990B0E943D
:1001E00007049B01AC01C501B4010E9464030E9495
:1001F000D60301C060E070E088890E94F6052A8578
:100200003B85888599858217930714F41B861A8687
:10021000DF91CF911F910F91FF90EF90DF90CF90E2
:10022000BF90AF909F908F90089561E085E00E940D
:100230007E0661E086E00E947E0661E083E00E9427
:100240007E0660E085E00E94BA0660E086E00E94DB
:10025000BA0660E083E00C94BA06CF93DF9361E0C6
:1002600083E00E94BA0661E085E00E94BA0661E080
:1002700086E00E94BA0668E873E180E090E00E94A0
:100280007F05C5E0D0E060E085E00E94BA0668EC3A
:1002900070E080E090E00E947F0560E086E00E94D0
:1002A000BA0668EC70E080E090E00E947F0560E0B4
:1002B00083E00E94BA0668EC70E080E090E00E9463
:1002C0007F0561E085E00E94BA0668EC70E080E09E
:1002D00090E00E947F0561E086E00E94BA0668EC2B
:1002E00070E080E090E00E947F0561E083E00E9482
:1002F000BA0668EC70E080E090E00E947F052197EC
:1003000011F6CCE0D0E060E085E00E94BA0668EC2F
:1003100070E080E090E00E947F0561E085E00E944F
:10032000BA0668EC70E080E090E00E947F052197BB
:1003300051F7CCE0D0E060E086E00E94BA0668ECBD
:1003400070E080E090E00E947F0561E086E00E941E
:10035000BA0668EC70E080E090E00E947F0521978B
:1003600051F7CCE0D0E060E085E00E94BA0660E0A2
:1003700086E00E94BA0664EF71E080E090E00E949F
:100380007F0561E085E00E94BA0661E086E00E9498
:10039000BA0664EF71E080E090E00E947F0521974B
:1003A00011F7C0E1D7E288E891E00E94870087E773
:1003B00091E00E94870086E691E00E94870061E05C
:1003C00070E080E090E00E947F05219761F7C0E136
:1003D000D7E285E591E00E94870084E491E00E94E5
:1003E000870083E391E00E94870061E070E080E095
:1003F00090E00E947F05219761F7C0E1D7E282E299
:1004000091E00E94870081E191E00E94870080E0F6
:1004100091E00E94870061E070E080E090E00E943F
:100420007F05219761F7DF91CF9108952F923F9239
:100430004F925F926F927F928F929F92AF92BF92F4
:10044000CF92DF92EF92FF920F931F93CF93DF93A0
:1004500088E8E82E81E0F82EF7011386128685E001
:10046000808B61E00E947E06812C912C9FE7A92E53
:1004700093E4B92EF70184869586A686B786118205
:100480001082C0E9D1E0D383C283D583C48320E244
:10049000C22E23E0D22ED782C68200E619E0118751
:1004A00000871386128637E7E32E31E0F32EF7013B
:1004B0001386128686E0808B61E00E947E06F7013B
:1004C00084869586A686B786D182C08280EB94E02A
:1004D000938382839583848340E4642E46E0742E64
:1004E00077826682118700871386128656E6E52E8C
:1004F00051E0F52EF7011386128683E0808B61E0D0
:100500000E947E06F70184869586A686B78671824C
:10051000608280ED97E09383828395838483178341
:100520000683118700871386128605E511E0F8011E
:100530001386128685E0808B61E00E947E06F801BA
:1005400084869586A686B78611821082D383C2835D
:1005500068E5462E62E0562E5582448278EEE72EFC
:1005600073E0F72EF782E682A8E06A2EA7E07A2EE3
:100570007186608613861286B4E42B2EB1E03B2E82
:10058000F1011386128686E0808B61E00E947E0670
:10059000F10184869586A686B786D183C083D382EF
:1005A000C282F582E48208E715E01783068371862C
:1005B00060861386128683E3282E81E0382EF101AF
:1005C0001386128683E0808B61E00E947E06F10133
:1005D00084869586A686B786D182C08280EB94E019
:1005E0009383828315830483778266827186608613
:1005F0001386128692E2C92E91E0D92EF601138657
:10060000128685E0808B61E00E947E06F60184867A
:100610009586A686B78611821082D383C2835582BF
:100620004482F782E682118700871386128621E1D1
:10063000C22E21E0D22EF6011386128686E0808B30
:1006400061E00E947E06F60184869586A686B786BE
:1006500011821082D383C28355824482F782E6825C
:10066000118700871386128630E0C32E31E0D32E27
:10067000F6011386128683E0808B61E00E947E067D
:10068000F60184869586A686B78611821082D3836A
:10069000C28355824482F782E682118700871386DF
:1006A0001286DF91CF911F910F91FF90EF90DF9015
:1006B000CF90BF90AF909F908F907F906F905F9002
:1006C0004F903F902F9008950E9478030C94590406
:1006D0000E94520458F00E944B0440F029F45F3FFE
:1006E00029F00C94420451110C948D040C9448048C
:1006F0000E946A0468F39923B1F3552391F3951B83
:10070000550BBB27AA2762177307840738F09F5F32
:100710005F4F220F331F441FAA1FA9F335D00E2E9F
:100720003AF0E0E832D091505040E695001CCAF70C
:100730002BD0FE2F29D0660F771F881FBB1F2617CF
:1007400037074807AB07B0E809F0BB0B802DBF01A6
:10075000FF2793585F4F3AF09E3F510578F00C9475
:1007600042040C948D045F3FE4F3983ED4F38695E5
:1007700077956795B795F7959F5FC9F7880F911D96
:100780009695879597F90895E1E0660F771F881F82
:10079000BB1F621773078407BA0720F0621B730B35
:1007A000840BBA0BEE1F88F7E09508950E9472043F
:1007B00088F09F5798F0B92F9927B751B0F0E1F022
:1007C000660F771F881F991F1AF0BA95C9F714C0D2
:1007D000B13091F00E948C04B1E008950C948C0427
:1007E000672F782F8827B85F39F0B93FCCF386950B
:1007F00077956795B395D9F73EF490958095709568
:1008000061957F4F8F4F9F4F0895E89409C097FBE4
:100810003EF490958095709561957F4F8F4F9F4FD7
:100820009923A9F0F92F96E9BB279395F69587951B
:1008300077956795B795F111F8CFFAF4BB0F11F4DE
:1008400060FF1BC06F5F7F4F8F4F9F4F16C0882385
:1008500011F096E911C0772321F09EE8872F762FBB
:1008600005C0662371F096E8862F70E060E02AF0FC
:100870009A95660F771F881FDAF7880F96958795E8
:1008800097F9089597F99F6780E870E060E0089510
:100890009FEF80EC089500240A9416161706180698
:1008A0000906089500240A94121613061406050674
:1008B0000895092E0394000C11F4882352F0BB0F05
:1008C00040F4BF2B11F460FF04C06F5F7F4F8F4F68
:1008D0009F4F089557FD9058440F551F59F05F3FA3
:1008E00071F04795880F97FB991F61F09F3F79F052
:1008F00087950895121613061406551FF2CF4695D4
:10090000F1DF08C0161617061806991FF1CF869555
:100910007105610508940895E894BB276627772739
:10092000CB0197F908950E94A6040C9459040E94E3
:100930004B0438F00E94520420F0952311F00C94DF
:1009400042040C94480411240C948D040E946A04FF
:1009500070F3959FC1F3950F50E0551F629FF00112
:10096000729FBB27F00DB11D639FAA27F00DB11D2B
:10097000AA1F649F6627B00DA11D661F829F2227B4
:10098000B00DA11D621F739FB00DA11D621F839F3B
:10099000A00D611D221F749F3327A00D611D231F11
:1009A000849F600D211D822F762F6A2F11249F575F
:1009B00050409AF0F1F088234AF0EE0FFF1FBB1F62
:1009C000661F771F881F91505040A9F79E3F510521
:1009D00080F00C9442040C948D045F3FE4F3983E45
:1009E000D4F3869577956795B795F795E7959F5FCB
:1009F000C1F7FE2B880F911D9695879597F908955D
:100A000008950E94BB050E9400050E941501C0E0E8
:100A1000D0E00E942D012097E1F30E940000F9CF61
:100A20001F920F920FB60F9211242F933F938F9323
:100A30009F93AF93BF9380919A0190919B01A09156
:100A40009C01B0919D013091990123E0230F2D3736
:100A500020F40196A11DB11D05C026E8230F0296C2
:100A6000A11DB11D2093990180939A0190939B0140
:100A7000A0939C01B0939D0180919E0190919F0154
:100A8000A091A001B091A1010196A11DB11D80937B
:100A90009E0190939F01A093A001B093A101BF91EB
:100AA000AF919F918F913F912F910F900FBE0F901B
:100AB0001F9018953FB7F89480919E0190919F01E7
:100AC000A091A001B091A10126B5A89B05C02F3F20
:100AD00019F00196A11DB11D3FBFBA2FA92F982F64
:100AE0008827820F911DA11DB11DBC01CD0142E0DF
:100AF000660F771F881F991F4A95D1F708958F9227
:100B00009F92AF92BF92CF92DF92EF92FF926B01D2
:100B10007C010E945A054B015C01C114D104E1041F
:100B2000F10401F10E94E9060E945A05DC01CB01A3
:100B300088199909AA09BB09883E9340A105B10506
:100B400060F321E0C21AD108E108F10888EE880EAE
:100B500083E0981EA11CB11CC114D104E104F1046E
:100B600019F7DBCFFF90EF90DF90CF90BF90AF9061
:100B70009F908F900895789484B5826084BD84B5E9
:100B8000816084BD85B5826085BD85B5816085BD88
:100B9000EEE6F0E0808181608083E1E8F0E01082A1
:100BA000808182608083808181608083E0E8F0E0E2
:100BB000808181608083E1EBF0E0808184608083CC
:100BC000E0EBF0E0808181608083EAE7F0E0808103
:100BD0008460808380818260808380818160808363
:100BE0008081806880831092C10008951F93CF9305
:100BF000DF93182FEB0161E00E947E06209711F42D
:100C000060E004C0CF3FD10539F461E0812FDF916E
:100C1000CF911F910C94BA06E12FF0E0E859FF4FF5
:100C2000E491E330F9F048F4E130B9F0E230A1F5B5
:100C300084B5806284BDC8BD34C0E730E9F0E830D7
:100C400019F1E43049F58091800080628093800042
:100C5000D0938B00C0938A0024C084B5806884BD83
:100C6000C7BD1FC080918000806880938000D093B2
:100C70008900C093880015C08091B000806880937F
:100C8000B000C093B3000DC08091B000806280932B
:100C9000B000C093B40005C0C038D1050CF0B5CF8A
:100CA000AFCFDF91CF911F910895833081F028F469
:100CB000813099F08230A1F008958730A9F0883012
:100CC000B9F08430D1F4809180008F7D03C0809191
:100CD00080008F7780938000089584B58F7702C05D
:100CE00084B58F7D84BD08958091B0008F7703C057
:100CF0008091B0008F7D8093B0000895CF93DF93F3
:100D000090E0FC01E458FF4F2491FC01E057FF4FB5
:100D10008491882361F190E0880F991FFC01E255CE
:100D2000FF4FC591D491FC01EC55FF4FA591B491B3
:100D3000611109C09FB7F894888120958223888328
:100D4000EC912E230BC0623061F49FB7F894888138
:100D5000322F309583238883EC912E2B2C939FBFC9
:100D600006C08FB7F894E8812E2B28838FBFDF91C0
:100D7000CF9108951F93CF93DF93282F30E0F9018F
:100D8000E859FF4F8491F901E458FF4FD491F901DC
:100D9000E057FF4FC491CC23C1F0162F81110E9460
:100DA0005506EC2FF0E0EE0FFF1FEC55FF4FA5911D
:100DB000B4919FB7F894111104C08C91D095D823A9
:100DC00002C0EC91DE2BDC939FBFDF91CF911F918E
:100DD00008950895EE0FFF1F0590F491E02D0994FA
:040DE000F894FFCFB5
:00000001FF
